{
  "_format": "hh-sol-artifact-1",
  "contractName": "Gemz",
  "sourceName": "contracts/Gemz.sol",
  "abi": [
    {
      "inputs": [],
      "stateMutability": "nonpayable",
      "type": "constructor"
    },
    {
      "anonymous": false,
      "inputs": [
        {
          "indexed": false,
          "internalType": "address",
          "name": "_artistAddr",
          "type": "address"
        },
        {
          "indexed": false,
          "internalType": "uint256",
          "name": "_amount",
          "type": "uint256"
        },
        {
          "indexed": false,
          "internalType": "address",
          "name": "_donorAddr",
          "type": "address"
        }
      ],
      "name": "Donate",
      "type": "event"
    },
    {
      "anonymous": false,
      "inputs": [
        {
          "indexed": true,
          "internalType": "address",
          "name": "previousOwner",
          "type": "address"
        },
        {
          "indexed": true,
          "internalType": "address",
          "name": "newOwner",
          "type": "address"
        }
      ],
      "name": "OwnershipTransferred",
      "type": "event"
    },
    {
      "anonymous": false,
      "inputs": [
        {
          "indexed": false,
          "internalType": "address",
          "name": "_artist",
          "type": "address"
        },
        {
          "indexed": false,
          "internalType": "string",
          "name": "_fileHash",
          "type": "string"
        },
        {
          "indexed": false,
          "internalType": "uint256",
          "name": "_fileID",
          "type": "uint256"
        }
      ],
      "name": "Uploaded",
      "type": "event"
    },
    {
      "inputs": [
        {
          "internalType": "uint256",
          "name": "id",
          "type": "uint256"
        }
      ],
      "name": "donate",
      "outputs": [],
      "stateMutability": "payable",
      "type": "function"
    },
    {
      "inputs": [],
      "name": "fileCount",
      "outputs": [
        {
          "internalType": "uint256",
          "name": "",
          "type": "uint256"
        }
      ],
      "stateMutability": "view",
      "type": "function"
    },
    {
      "inputs": [
        {
          "internalType": "uint256",
          "name": "",
          "type": "uint256"
        }
      ],
      "name": "files",
      "outputs": [
        {
          "internalType": "uint256",
          "name": "fileID",
          "type": "uint256"
        },
        {
          "internalType": "string",
          "name": "fileHash",
          "type": "string"
        },
        {
          "internalType": "string",
          "name": "coverHash",
          "type": "string"
        },
        {
          "internalType": "string",
          "name": "fileName",
          "type": "string"
        },
        {
          "internalType": "string",
          "name": "artistName",
          "type": "string"
        },
        {
          "internalType": "address payable",
          "name": "artistAddr",
          "type": "address"
        },
        {
          "internalType": "string",
          "name": "genre",
          "type": "string"
        },
        {
          "internalType": "uint256",
          "name": "likesCount",
          "type": "uint256"
        }
      ],
      "stateMutability": "view",
      "type": "function"
    },
    {
      "inputs": [],
      "name": "owner",
      "outputs": [
        {
          "internalType": "address",
          "name": "",
          "type": "address"
        }
      ],
      "stateMutability": "view",
      "type": "function"
    },
    {
      "inputs": [],
      "name": "renounceOwnership",
      "outputs": [],
      "stateMutability": "nonpayable",
      "type": "function"
    },
    {
      "inputs": [
        {
          "internalType": "address",
          "name": "newOwner",
          "type": "address"
        }
      ],
      "name": "transferOwnership",
      "outputs": [],
      "stateMutability": "nonpayable",
      "type": "function"
    },
    {
      "inputs": [
        {
          "internalType": "string",
          "name": "_fileHash",
          "type": "string"
        },
        {
          "internalType": "string",
          "name": "_coverHash",
          "type": "string"
        },
        {
          "internalType": "string",
          "name": "_fileName",
          "type": "string"
        },
        {
          "internalType": "string",
          "name": "_artistName",
          "type": "string"
        },
        {
          "internalType": "string",
          "name": "_genre",
          "type": "string"
        }
      ],
      "name": "uploadFile",
      "outputs": [],
      "stateMutability": "nonpayable",
      "type": "function"
    }
  ],
  "bytecode": "0x608060405234801561001057600080fd5b5061002d61002261003a60201b60201c565b61004260201b60201c565b6000600181905550610106565b600033905090565b60008060009054906101000a900473ffffffffffffffffffffffffffffffffffffffff169050816000806101000a81548173ffffffffffffffffffffffffffffffffffffffff021916908373ffffffffffffffffffffffffffffffffffffffff1602179055508173ffffffffffffffffffffffffffffffffffffffff168173ffffffffffffffffffffffffffffffffffffffff167f8be0079c531659141344cd1fd0a4f28419497f9722a3daafe3b4186f6b6457e060405160405180910390a35050565b6115b2806101156000396000f3fe6080604052600436106100705760003560e01c8063ef8b38391161004e578063ef8b3839146100e2578063f14faf6f1461010b578063f2fde38b14610127578063f4c714b41461015057610070565b80634395351914610075578063715018a6146100a05780638da5cb5b146100b7575b600080fd5b34801561008157600080fd5b5061008a610194565b60405161009791906110b9565b60405180910390f35b3480156100ac57600080fd5b506100b561019a565b005b3480156100c357600080fd5b506100cc610222565b6040516100d99190610f89565b60405180910390f35b3480156100ee57600080fd5b5061010960048036038101906101049190610d15565b61024b565b005b61012560048036038101906101209190610e04565b61049a565b005b34801561013357600080fd5b5061014e60048036038101906101499190610cec565b6106d3565b005b34801561015c57600080fd5b5061017760048036038101906101729190610e04565b6107cb565b60405161018b9897969594939291906110d4565b60405180910390f35b60015481565b6101a2610aeb565b73ffffffffffffffffffffffffffffffffffffffff166101c0610222565b73ffffffffffffffffffffffffffffffffffffffff1614610216576040517f08c379a000000000000000000000000000000000000000000000000000000000815260040161020d90611059565b60405180910390fd5b6102206000610af3565b565b60008060009054906101000a900473ffffffffffffffffffffffffffffffffffffffff16905090565b600085511161028f576040517f08c379a000000000000000000000000000000000000000000000000000000000815260040161028690611079565b60405180910390fd5b600060026001816001815401808255809150500390600052602060002090600a02019050600180546102c191906111f2565b8160000181905550858160010190805190602001906102e1929190610bb7565b50848160020190805190602001906102fa929190610bb7565b5083816003019080519060200190610313929190610bb7565b508281600401908051906020019061032c929190610bb7565b5081816006019080519060200190610345929190610bb7565b5080600701339080600181540180825580915050600190039060005260206000200160009091909190916101000a81548173ffffffffffffffffffffffffffffffffffffffff021916908373ffffffffffffffffffffffffffffffffffffffff16021790555060008160080160003373ffffffffffffffffffffffffffffffffffffffff1673ffffffffffffffffffffffffffffffffffffffff16815260200190815260200160002060006101000a81548160ff02191690836001811115610436577f4e487b7100000000000000000000000000000000000000000000000000000000600052602160045260246000fd5b02179055506001600081548092919061044e90611371565b91905055507f17315ecec671b32f6749c596e20282759bbafba9107d5bf81c522f8033505f743387836000015460405161048a93929190610fdb565b60405180910390a1505050505050565b600034116104a757600080fd5b6000600282815481106104e3577f4e487b7100000000000000000000000000000000000000000000000000000000600052603260045260246000fd5b90600052602060002090600a020160050160009054906101000a900473ffffffffffffffffffffffffffffffffffffffff1690508073ffffffffffffffffffffffffffffffffffffffff163373ffffffffffffffffffffffffffffffffffffffff161415610586576040517f08c379a000000000000000000000000000000000000000000000000000000000815260040161057d90611019565b60405180910390fd5b60008173ffffffffffffffffffffffffffffffffffffffff16346040516105ac90610f74565b60006040518083038185875af1925050503d80600081146105e9576040519150601f19603f3d011682016040523d82523d6000602084013e6105ee565b606091505b5050905080610632576040517f08c379a000000000000000000000000000000000000000000000000000000000815260040161062990611099565b60405180910390fd5b6002838154811061066c577f4e487b7100000000000000000000000000000000000000000000000000000000600052603260045260246000fd5b90600052602060002090600a0201600901600081548092919061068e90611371565b91905055507f8f11dba2544ce43eca352413d917b518dcd4eadce072e46e3f53cc63543b22d78234336040516106c693929190610fa4565b60405180910390a1505050565b6106db610aeb565b73ffffffffffffffffffffffffffffffffffffffff166106f9610222565b73ffffffffffffffffffffffffffffffffffffffff161461074f576040517f08c379a000000000000000000000000000000000000000000000000000000000815260040161074690611059565b60405180910390fd5b600073ffffffffffffffffffffffffffffffffffffffff168173ffffffffffffffffffffffffffffffffffffffff1614156107bf576040517f08c379a00000000000000000000000000000000000000000000000000000000081526004016107b690611039565b60405180910390fd5b6107c881610af3565b50565b600281815481106107db57600080fd5b90600052602060002090600a02016000915090508060000154908060010180546108049061130e565b80601f01602080910402602001604051908101604052809291908181526020018280546108309061130e565b801561087d5780601f106108525761010080835404028352916020019161087d565b820191906000526020600020905b81548152906001019060200180831161086057829003601f168201915b5050505050908060020180546108929061130e565b80601f01602080910402602001604051908101604052809291908181526020018280546108be9061130e565b801561090b5780601f106108e05761010080835404028352916020019161090b565b820191906000526020600020905b8154815290600101906020018083116108ee57829003601f168201915b5050505050908060030180546109209061130e565b80601f016020809104026020016040519081016040528092919081815260200182805461094c9061130e565b80156109995780601f1061096e57610100808354040283529160200191610999565b820191906000526020600020905b81548152906001019060200180831161097c57829003601f168201915b5050505050908060040180546109ae9061130e565b80601f01602080910402602001604051908101604052809291908181526020018280546109da9061130e565b8015610a275780601f106109fc57610100808354040283529160200191610a27565b820191906000526020600020905b815481529060010190602001808311610a0a57829003601f168201915b5050505050908060050160009054906101000a900473ffffffffffffffffffffffffffffffffffffffff1690806006018054610a629061130e565b80601f0160208091040260200160405190810160405280929190818152602001828054610a8e9061130e565b8015610adb5780601f10610ab057610100808354040283529160200191610adb565b820191906000526020600020905b815481529060010190602001808311610abe57829003601f168201915b5050505050908060090154905088565b600033905090565b60008060009054906101000a900473ffffffffffffffffffffffffffffffffffffffff169050816000806101000a81548173ffffffffffffffffffffffffffffffffffffffff021916908373ffffffffffffffffffffffffffffffffffffffff1602179055508173ffffffffffffffffffffffffffffffffffffffff168173ffffffffffffffffffffffffffffffffffffffff167f8be0079c531659141344cd1fd0a4f28419497f9722a3daafe3b4186f6b6457e060405160405180910390a35050565b828054610bc39061130e565b90600052602060002090601f016020900481019282610be55760008555610c2c565b82601f10610bfe57805160ff1916838001178555610c2c565b82800160010185558215610c2c579182015b82811115610c2b578251825591602001919060010190610c10565b5b509050610c399190610c3d565b5090565b5b80821115610c56576000816000905550600101610c3e565b5090565b6000610c6d610c688461119a565b611175565b905082815260208101848484011115610c8557600080fd5b610c908482856112cc565b509392505050565b600081359050610ca78161154e565b92915050565b600082601f830112610cbe57600080fd5b8135610cce848260208601610c5a565b91505092915050565b600081359050610ce681611565565b92915050565b600060208284031215610cfe57600080fd5b6000610d0c84828501610c98565b91505092915050565b600080600080600060a08688031215610d2d57600080fd5b600086013567ffffffffffffffff811115610d4757600080fd5b610d5388828901610cad565b955050602086013567ffffffffffffffff811115610d7057600080fd5b610d7c88828901610cad565b945050604086013567ffffffffffffffff811115610d9957600080fd5b610da588828901610cad565b935050606086013567ffffffffffffffff811115610dc257600080fd5b610dce88828901610cad565b925050608086013567ffffffffffffffff811115610deb57600080fd5b610df788828901610cad565b9150509295509295909350565b600060208284031215610e1657600080fd5b6000610e2484828501610cd7565b91505092915050565b610e3681611296565b82525050565b610e458161125a565b82525050565b610e5481611248565b82525050565b6000610e65826111cb565b610e6f81856111e1565b9350610e7f8185602086016112db565b610e8881611447565b840191505092915050565b6000610ea0601d836111e1565b9150610eab82611458565b602082019050919050565b6000610ec36026836111e1565b9150610ece82611481565b604082019050919050565b6000610ee66020836111e1565b9150610ef1826114d0565b602082019050919050565b6000610f096000836111d6565b9150610f14826114f9565b600082019050919050565b6000610f2c6016836111e1565b9150610f37826114fc565b602082019050919050565b6000610f4f6014836111e1565b9150610f5a82611525565b602082019050919050565b610f6e8161128c565b82525050565b6000610f7f82610efc565b9150819050919050565b6000602082019050610f9e6000830184610e4b565b92915050565b6000606082019050610fb96000830186610e2d565b610fc66020830185610f65565b610fd36040830184610e4b565b949350505050565b6000606082019050610ff06000830186610e4b565b81810360208301526110028185610e5a565b90506110116040830184610f65565b949350505050565b6000602082019050818103600083015261103281610e93565b9050919050565b6000602082019050818103600083015261105281610eb6565b9050919050565b6000602082019050818103600083015261107281610ed9565b9050919050565b6000602082019050818103600083015261109281610f1f565b9050919050565b600060208201905081810360008301526110b281610f42565b9050919050565b60006020820190506110ce6000830184610f65565b92915050565b6000610100820190506110ea600083018b610f65565b81810360208301526110fc818a610e5a565b905081810360408301526111108189610e5a565b905081810360608301526111248188610e5a565b905081810360808301526111388187610e5a565b905061114760a0830186610e3c565b81810360c08301526111598185610e5a565b905061116860e0830184610f65565b9998505050505050505050565b600061117f611190565b905061118b8282611340565b919050565b6000604051905090565b600067ffffffffffffffff8211156111b5576111b4611418565b5b6111be82611447565b9050602081019050919050565b600081519050919050565b600081905092915050565b600082825260208201905092915050565b60006111fd8261128c565b91506112088361128c565b9250827fffffffffffffffffffffffffffffffffffffffffffffffffffffffffffffffff0382111561123d5761123c6113ba565b5b828201905092915050565b60006112538261126c565b9050919050565b60006112658261126c565b9050919050565b600073ffffffffffffffffffffffffffffffffffffffff82169050919050565b6000819050919050565b60006112a1826112a8565b9050919050565b60006112b3826112ba565b9050919050565b60006112c58261126c565b9050919050565b82818337600083830152505050565b60005b838110156112f95780820151818401526020810190506112de565b83811115611308576000848401525b50505050565b6000600282049050600182168061132657607f821691505b6020821081141561133a576113396113e9565b5b50919050565b61134982611447565b810181811067ffffffffffffffff8211171561136857611367611418565b5b80604052505050565b600061137c8261128c565b91507fffffffffffffffffffffffffffffffffffffffffffffffffffffffffffffffff8214156113af576113ae6113ba565b5b600182019050919050565b7f4e487b7100000000000000000000000000000000000000000000000000000000600052601160045260246000fd5b7f4e487b7100000000000000000000000000000000000000000000000000000000600052602260045260246000fd5b7f4e487b7100000000000000000000000000000000000000000000000000000000600052604160045260246000fd5b6000601f19601f8301169050919050565b7f596f752063616e6e6f7420646f6e61746520746f20796f757273656c66000000600082015250565b7f4f776e61626c653a206e6577206f776e657220697320746865207a65726f206160008201527f6464726573730000000000000000000000000000000000000000000000000000602082015250565b7f4f776e61626c653a2063616c6c6572206973206e6f7420746865206f776e6572600082015250565b50565b7f46696c652068617368206973206e6f742076616c696400000000000000000000600082015250565b7f6661696c656420746f2073656e64204574686572000000000000000000000000600082015250565b61155781611248565b811461156257600080fd5b50565b61156e8161128c565b811461157957600080fd5b5056fea2646970667358221220bc9c7f135100141cbbdbaffcb274d3f28b003c5c1556aed0399956c8bcb3bdc464736f6c63430008040033",
  "linkReferences": {},
  "deployedLinkReferences": {}
}