{
  "_format": "hh-sol-artifact-1",
  "contractName": "Gemz",
  "sourceName": "contracts/Gemz.sol",
  "abi": [
    {
      "inputs": [],
      "stateMutability": "nonpayable",
      "type": "constructor"
    },
    {
      "anonymous": false,
      "inputs": [
        {
          "indexed": false,
          "internalType": "address",
          "name": "_artistAddr",
          "type": "address"
        },
        {
          "indexed": false,
          "internalType": "uint256",
          "name": "_amount",
          "type": "uint256"
        },
        {
          "indexed": false,
          "internalType": "address",
          "name": "_donorAddr",
          "type": "address"
        }
      ],
      "name": "Donate",
      "type": "event"
    },
    {
      "anonymous": false,
      "inputs": [
        {
          "indexed": true,
          "internalType": "address",
          "name": "previousOwner",
          "type": "address"
        },
        {
          "indexed": true,
          "internalType": "address",
          "name": "newOwner",
          "type": "address"
        }
      ],
      "name": "OwnershipTransferred",
      "type": "event"
    },
    {
      "anonymous": false,
      "inputs": [
        {
          "indexed": false,
          "internalType": "address",
          "name": "_artist",
          "type": "address"
        },
        {
          "indexed": false,
          "internalType": "string",
          "name": "_fileHash",
          "type": "string"
        },
        {
          "indexed": false,
          "internalType": "uint256",
          "name": "_fileID",
          "type": "uint256"
        }
      ],
      "name": "Uploaded",
      "type": "event"
    },
    {
      "inputs": [
        {
          "internalType": "uint256",
          "name": "id",
          "type": "uint256"
        }
      ],
      "name": "donate",
      "outputs": [],
      "stateMutability": "payable",
      "type": "function"
    },
    {
      "inputs": [],
      "name": "fileCount",
      "outputs": [
        {
          "internalType": "uint256",
          "name": "",
          "type": "uint256"
        }
      ],
      "stateMutability": "view",
      "type": "function"
    },
    {
      "inputs": [
        {
          "internalType": "uint256",
          "name": "",
          "type": "uint256"
        }
      ],
      "name": "files",
      "outputs": [
        {
          "internalType": "uint256",
          "name": "fileID",
          "type": "uint256"
        },
        {
          "internalType": "string",
          "name": "fileHash",
          "type": "string"
        },
        {
          "internalType": "string",
          "name": "coverHash",
          "type": "string"
        },
        {
          "internalType": "string",
          "name": "fileName",
          "type": "string"
        },
        {
          "internalType": "string",
          "name": "artistName",
          "type": "string"
        },
        {
          "internalType": "address payable",
          "name": "artistAddr",
          "type": "address"
        },
        {
          "internalType": "string",
          "name": "genre",
          "type": "string"
        },
        {
          "internalType": "uint256",
          "name": "likesCount",
          "type": "uint256"
        }
      ],
      "stateMutability": "view",
      "type": "function"
    },
    {
      "inputs": [],
      "name": "owner",
      "outputs": [
        {
          "internalType": "address",
          "name": "",
          "type": "address"
        }
      ],
      "stateMutability": "view",
      "type": "function"
    },
    {
      "inputs": [],
      "name": "renounceOwnership",
      "outputs": [],
      "stateMutability": "nonpayable",
      "type": "function"
    },
    {
      "inputs": [
        {
          "internalType": "address",
          "name": "newOwner",
          "type": "address"
        }
      ],
      "name": "transferOwnership",
      "outputs": [],
      "stateMutability": "nonpayable",
      "type": "function"
    },
    {
      "inputs": [
        {
          "internalType": "string",
          "name": "_fileHash",
          "type": "string"
        },
        {
          "internalType": "string",
          "name": "_coverHash",
          "type": "string"
        },
        {
          "internalType": "string",
          "name": "_fileName",
          "type": "string"
        },
        {
          "internalType": "string",
          "name": "_artistName",
          "type": "string"
        },
        {
          "internalType": "string",
          "name": "_genre",
          "type": "string"
        }
      ],
      "name": "uploadFile",
      "outputs": [],
      "stateMutability": "nonpayable",
      "type": "function"
    }
  ],
  "bytecode": "0x608060405234801561001057600080fd5b5061002d61002261003a60201b60201c565b61004260201b60201c565b6000600181905550610106565b600033905090565b60008060009054906101000a900473ffffffffffffffffffffffffffffffffffffffff169050816000806101000a81548173ffffffffffffffffffffffffffffffffffffffff021916908373ffffffffffffffffffffffffffffffffffffffff1602179055508173ffffffffffffffffffffffffffffffffffffffff168173ffffffffffffffffffffffffffffffffffffffff167f8be0079c531659141344cd1fd0a4f28419497f9722a3daafe3b4186f6b6457e060405160405180910390a35050565b611778806101156000396000f3fe6080604052600436106100705760003560e01c8063ef8b38391161004e578063ef8b3839146100e2578063f14faf6f1461010b578063f2fde38b14610127578063f4c714b41461015057610070565b80634395351914610075578063715018a6146100a05780638da5cb5b146100b7575b600080fd5b34801561008157600080fd5b5061008a610194565b604051610097919061127f565b60405180910390f35b3480156100ac57600080fd5b506100b561019a565b005b3480156100c357600080fd5b506100cc610222565b6040516100d9919061114f565b60405180910390f35b3480156100ee57600080fd5b5061010960048036038101906101049190610edb565b61024b565b005b61012560048036038101906101209190610fca565b6104dd565b005b34801561013357600080fd5b5061014e60048036038101906101499190610eb2565b610899565b005b34801561015c57600080fd5b5061017760048036038101906101729190610fca565b610991565b60405161018b98979695949392919061129a565b60405180910390f35b60015481565b6101a2610cb1565b73ffffffffffffffffffffffffffffffffffffffff166101c0610222565b73ffffffffffffffffffffffffffffffffffffffff1614610216576040517f08c379a000000000000000000000000000000000000000000000000000000000815260040161020d9061121f565b60405180910390fd5b6102206000610cb9565b565b60008060009054906101000a900473ffffffffffffffffffffffffffffffffffffffff16905090565b600085511161028f576040517f08c379a00000000000000000000000000000000000000000000000000000000081526004016102869061123f565b60405180910390fd5b600060026001816001815401808255809150500390600052602060002090600a02019050600180546102c191906113b8565b8160000181905550858160010190805190602001906102e1929190610d7d565b50848160020190805190602001906102fa929190610d7d565b5083816003019080519060200190610313929190610d7d565b508281600401908051906020019061032c929190610d7d565b50338160050160006101000a81548173ffffffffffffffffffffffffffffffffffffffff021916908373ffffffffffffffffffffffffffffffffffffffff16021790555081816006019080519060200190610388929190610d7d565b5080600701339080600181540180825580915050600190039060005260206000200160009091909190916101000a81548173ffffffffffffffffffffffffffffffffffffffff021916908373ffffffffffffffffffffffffffffffffffffffff16021790555060008160080160003373ffffffffffffffffffffffffffffffffffffffff1673ffffffffffffffffffffffffffffffffffffffff16815260200190815260200160002060006101000a81548160ff02191690836001811115610479577f4e487b7100000000000000000000000000000000000000000000000000000000600052602160045260246000fd5b02179055506001600081548092919061049190611537565b91905055507f17315ecec671b32f6749c596e20282759bbafba9107d5bf81c522f8033505f74338783600001546040516104cd939291906111a1565b60405180910390a1505050505050565b600034116104ea57600080fd5b600060028281548110610526577f4e487b7100000000000000000000000000000000000000000000000000000000600052603260045260246000fd5b90600052602060002090600a020160050160009054906101000a900473ffffffffffffffffffffffffffffffffffffffff1690508073ffffffffffffffffffffffffffffffffffffffff163373ffffffffffffffffffffffffffffffffffffffff1614156105c9576040517f08c379a00000000000000000000000000000000000000000000000000000000081526004016105c0906111df565b60405180910390fd5b60008173ffffffffffffffffffffffffffffffffffffffff16346040516105ef9061113a565b60006040518083038185875af1925050503d806000811461062c576040519150601f19603f3d011682016040523d82523d6000602084013e610631565b606091505b5050905080610675576040517f08c379a000000000000000000000000000000000000000000000000000000000815260040161066c9061125f565b60405180910390fd5b600283815481106106af577f4e487b7100000000000000000000000000000000000000000000000000000000600052603260045260246000fd5b90600052602060002090600a020160090160008154809291906106d190611537565b9190505550600060028481548110610712577f4e487b7100000000000000000000000000000000000000000000000000000000600052603260045260246000fd5b90600052602060002090600a020160080160003373ffffffffffffffffffffffffffffffffffffffff1673ffffffffffffffffffffffffffffffffffffffff16815260200190815260200160002060006101000a81548160ff021916908360018111156107a8577f4e487b7100000000000000000000000000000000000000000000000000000000600052602160045260246000fd5b0217905550600283815481106107e7577f4e487b7100000000000000000000000000000000000000000000000000000000600052603260045260246000fd5b90600052602060002090600a0201600701339080600181540180825580915050600190039060005260206000200160009091909190916101000a81548173ffffffffffffffffffffffffffffffffffffffff021916908373ffffffffffffffffffffffffffffffffffffffff1602179055507f8f11dba2544ce43eca352413d917b518dcd4eadce072e46e3f53cc63543b22d782343360405161088c9392919061116a565b60405180910390a1505050565b6108a1610cb1565b73ffffffffffffffffffffffffffffffffffffffff166108bf610222565b73ffffffffffffffffffffffffffffffffffffffff1614610915576040517f08c379a000000000000000000000000000000000000000000000000000000000815260040161090c9061121f565b60405180910390fd5b600073ffffffffffffffffffffffffffffffffffffffff168173ffffffffffffffffffffffffffffffffffffffff161415610985576040517f08c379a000000000000000000000000000000000000000000000000000000000815260040161097c906111ff565b60405180910390fd5b61098e81610cb9565b50565b600281815481106109a157600080fd5b90600052602060002090600a02016000915090508060000154908060010180546109ca906114d4565b80601f01602080910402602001604051908101604052809291908181526020018280546109f6906114d4565b8015610a435780601f10610a1857610100808354040283529160200191610a43565b820191906000526020600020905b815481529060010190602001808311610a2657829003601f168201915b505050505090806002018054610a58906114d4565b80601f0160208091040260200160405190810160405280929190818152602001828054610a84906114d4565b8015610ad15780601f10610aa657610100808354040283529160200191610ad1565b820191906000526020600020905b815481529060010190602001808311610ab457829003601f168201915b505050505090806003018054610ae6906114d4565b80601f0160208091040260200160405190810160405280929190818152602001828054610b12906114d4565b8015610b5f5780601f10610b3457610100808354040283529160200191610b5f565b820191906000526020600020905b815481529060010190602001808311610b4257829003601f168201915b505050505090806004018054610b74906114d4565b80601f0160208091040260200160405190810160405280929190818152602001828054610ba0906114d4565b8015610bed5780601f10610bc257610100808354040283529160200191610bed565b820191906000526020600020905b815481529060010190602001808311610bd057829003601f168201915b5050505050908060050160009054906101000a900473ffffffffffffffffffffffffffffffffffffffff1690806006018054610c28906114d4565b80601f0160208091040260200160405190810160405280929190818152602001828054610c54906114d4565b8015610ca15780601f10610c7657610100808354040283529160200191610ca1565b820191906000526020600020905b815481529060010190602001808311610c8457829003601f168201915b5050505050908060090154905088565b600033905090565b60008060009054906101000a900473ffffffffffffffffffffffffffffffffffffffff169050816000806101000a81548173ffffffffffffffffffffffffffffffffffffffff021916908373ffffffffffffffffffffffffffffffffffffffff1602179055508173ffffffffffffffffffffffffffffffffffffffff168173ffffffffffffffffffffffffffffffffffffffff167f8be0079c531659141344cd1fd0a4f28419497f9722a3daafe3b4186f6b6457e060405160405180910390a35050565b828054610d89906114d4565b90600052602060002090601f016020900481019282610dab5760008555610df2565b82601f10610dc457805160ff1916838001178555610df2565b82800160010185558215610df2579182015b82811115610df1578251825591602001919060010190610dd6565b5b509050610dff9190610e03565b5090565b5b80821115610e1c576000816000905550600101610e04565b5090565b6000610e33610e2e84611360565b61133b565b905082815260208101848484011115610e4b57600080fd5b610e56848285611492565b509392505050565b600081359050610e6d81611714565b92915050565b600082601f830112610e8457600080fd5b8135610e94848260208601610e20565b91505092915050565b600081359050610eac8161172b565b92915050565b600060208284031215610ec457600080fd5b6000610ed284828501610e5e565b91505092915050565b600080600080600060a08688031215610ef357600080fd5b600086013567ffffffffffffffff811115610f0d57600080fd5b610f1988828901610e73565b955050602086013567ffffffffffffffff811115610f3657600080fd5b610f4288828901610e73565b945050604086013567ffffffffffffffff811115610f5f57600080fd5b610f6b88828901610e73565b935050606086013567ffffffffffffffff811115610f8857600080fd5b610f9488828901610e73565b925050608086013567ffffffffffffffff811115610fb157600080fd5b610fbd88828901610e73565b9150509295509295909350565b600060208284031215610fdc57600080fd5b6000610fea84828501610e9d565b91505092915050565b610ffc8161145c565b82525050565b61100b81611420565b82525050565b61101a8161140e565b82525050565b600061102b82611391565b61103581856113a7565b93506110458185602086016114a1565b61104e8161160d565b840191505092915050565b6000611066601d836113a7565b91506110718261161e565b602082019050919050565b60006110896026836113a7565b915061109482611647565b604082019050919050565b60006110ac6020836113a7565b91506110b782611696565b602082019050919050565b60006110cf60008361139c565b91506110da826116bf565b600082019050919050565b60006110f26016836113a7565b91506110fd826116c2565b602082019050919050565b60006111156014836113a7565b9150611120826116eb565b602082019050919050565b61113481611452565b82525050565b6000611145826110c2565b9150819050919050565b60006020820190506111646000830184611011565b92915050565b600060608201905061117f6000830186610ff3565b61118c602083018561112b565b6111996040830184611011565b949350505050565b60006060820190506111b66000830186611011565b81810360208301526111c88185611020565b90506111d7604083018461112b565b949350505050565b600060208201905081810360008301526111f881611059565b9050919050565b600060208201905081810360008301526112188161107c565b9050919050565b600060208201905081810360008301526112388161109f565b9050919050565b60006020820190508181036000830152611258816110e5565b9050919050565b6000602082019050818103600083015261127881611108565b9050919050565b6000602082019050611294600083018461112b565b92915050565b6000610100820190506112b0600083018b61112b565b81810360208301526112c2818a611020565b905081810360408301526112d68189611020565b905081810360608301526112ea8188611020565b905081810360808301526112fe8187611020565b905061130d60a0830186611002565b81810360c083015261131f8185611020565b905061132e60e083018461112b565b9998505050505050505050565b6000611345611356565b90506113518282611506565b919050565b6000604051905090565b600067ffffffffffffffff82111561137b5761137a6115de565b5b6113848261160d565b9050602081019050919050565b600081519050919050565b600081905092915050565b600082825260208201905092915050565b60006113c382611452565b91506113ce83611452565b9250827fffffffffffffffffffffffffffffffffffffffffffffffffffffffffffffffff0382111561140357611402611580565b5b828201905092915050565b600061141982611432565b9050919050565b600061142b82611432565b9050919050565b600073ffffffffffffffffffffffffffffffffffffffff82169050919050565b6000819050919050565b60006114678261146e565b9050919050565b600061147982611480565b9050919050565b600061148b82611432565b9050919050565b82818337600083830152505050565b60005b838110156114bf5780820151818401526020810190506114a4565b838111156114ce576000848401525b50505050565b600060028204905060018216806114ec57607f821691505b60208210811415611500576114ff6115af565b5b50919050565b61150f8261160d565b810181811067ffffffffffffffff8211171561152e5761152d6115de565b5b80604052505050565b600061154282611452565b91507fffffffffffffffffffffffffffffffffffffffffffffffffffffffffffffffff82141561157557611574611580565b5b600182019050919050565b7f4e487b7100000000000000000000000000000000000000000000000000000000600052601160045260246000fd5b7f4e487b7100000000000000000000000000000000000000000000000000000000600052602260045260246000fd5b7f4e487b7100000000000000000000000000000000000000000000000000000000600052604160045260246000fd5b6000601f19601f8301169050919050565b7f596f752063616e6e6f7420646f6e61746520746f20796f757273656c66000000600082015250565b7f4f776e61626c653a206e6577206f776e657220697320746865207a65726f206160008201527f6464726573730000000000000000000000000000000000000000000000000000602082015250565b7f4f776e61626c653a2063616c6c6572206973206e6f7420746865206f776e6572600082015250565b50565b7f46696c652068617368206973206e6f742076616c696400000000000000000000600082015250565b7f6661696c656420746f2073656e64204574686572000000000000000000000000600082015250565b61171d8161140e565b811461172857600080fd5b50565b61173481611452565b811461173f57600080fd5b5056fea2646970667358221220d5d72145d93e96ade67c5844db7ae8716498bc357a18b80b46a79ac56cf1222164736f6c63430008040033",
  "linkReferences": {},
  "deployedLinkReferences": {}
}