{
  "_format": "hh-sol-artifact-1",
  "contractName": "Gemz",
  "sourceName": "contracts/Gemz.sol",
  "abi": [
    {
      "inputs": [],
      "stateMutability": "nonpayable",
      "type": "constructor"
    },
    {
      "anonymous": false,
      "inputs": [
        {
          "indexed": false,
          "internalType": "address",
          "name": "receiver",
          "type": "address"
        },
        {
          "indexed": false,
          "internalType": "uint256",
          "name": "amount",
          "type": "uint256"
        },
        {
          "indexed": false,
          "internalType": "address",
          "name": "donator",
          "type": "address"
        }
      ],
      "name": "Donate",
      "type": "event"
    },
    {
      "inputs": [
        {
          "internalType": "uint256",
          "name": "id",
          "type": "uint256"
        },
        {
          "internalType": "uint256",
          "name": "amount",
          "type": "uint256"
        }
      ],
      "name": "donate",
      "outputs": [],
      "stateMutability": "payable",
      "type": "function"
    },
    {
      "inputs": [],
      "name": "photoCount",
      "outputs": [
        {
          "internalType": "uint256",
          "name": "",
          "type": "uint256"
        }
      ],
      "stateMutability": "view",
      "type": "function"
    },
    {
      "inputs": [
        {
          "internalType": "uint256",
          "name": "",
          "type": "uint256"
        }
      ],
      "name": "photos",
      "outputs": [
        {
          "internalType": "string",
          "name": "photoHash",
          "type": "string"
        },
        {
          "internalType": "string",
          "name": "authorName",
          "type": "string"
        },
        {
          "internalType": "address payable",
          "name": "author",
          "type": "address"
        },
        {
          "internalType": "string",
          "name": "description",
          "type": "string"
        },
        {
          "internalType": "uint256",
          "name": "totalDonation",
          "type": "uint256"
        }
      ],
      "stateMutability": "view",
      "type": "function"
    },
    {
      "inputs": [
        {
          "internalType": "string",
          "name": "photoHash",
          "type": "string"
        },
        {
          "internalType": "string",
          "name": "authorName",
          "type": "string"
        },
        {
          "internalType": "string",
          "name": "description",
          "type": "string"
        }
      ],
      "name": "uploadPhoto",
      "outputs": [],
      "stateMutability": "nonpayable",
      "type": "function"
    }
  ],
  "bytecode": "0x60806040526000805534801561001457600080fd5b50610ebd806100246000396000f3fe60806040526004361061003f5760003560e01c80630cdd53f61461004457806312d28b1814610060578063a85526511461008b578063af2a5d6f146100b4575b600080fd5b61005e600480360381019061005991906108ab565b6100f5565b005b34801561006c57600080fd5b506100756102a5565b6040516100829190610b02565b60405180910390f35b34801561009757600080fd5b506100b260048036038101906100ad91906107eb565b6102ab565b005b3480156100c057600080fd5b506100db60048036038101906100d69190610882565b610415565b6040516100ec9594939291906109fc565b60405180910390f35b803373ffffffffffffffffffffffffffffffffffffffff16311161014e576040517f08c379a000000000000000000000000000000000000000000000000000000000815260040161014590610ae2565b60405180910390fd5b60006001600084815260200190815260200160002060020160009054906101000a900473ffffffffffffffffffffffffffffffffffffffff1690508073ffffffffffffffffffffffffffffffffffffffff163373ffffffffffffffffffffffffffffffffffffffff1614156101f8576040517f08c379a00000000000000000000000000000000000000000000000000000000081526004016101ef90610ac2565b60405180910390fd5b3460016000858152602001908152602001600020600401600082825461021e9190610b8f565b925050819055506102656040518060400160405280601881526020017f446f6e6174696e6720257320616d6f756e7420746f20257300000000000000008152503483610603565b7f8f11dba2544ce43eca352413d917b518dcd4eadce072e46e3f53cc63543b22d7813433604051610298939291906109c5565b60405180910390a1505050565b60005481565b60008351116102ef576040517f08c379a00000000000000000000000000000000000000000000000000000000081526004016102e690610aa2565b60405180910390fd5b6040518060a001604052808481526020018381526020013373ffffffffffffffffffffffffffffffffffffffff16815260200182815260200160008152506001600060016000546103409190610b8f565b8152602001908152602001600020600082015181600001908051906020019061036a9291906106cb565b5060208201518160010190805190602001906103879291906106cb565b5060408201518160020160006101000a81548173ffffffffffffffffffffffffffffffffffffffff021916908373ffffffffffffffffffffffffffffffffffffffff16021790555060608201518160030190805190602001906103eb9291906106cb565b506080820151816004015590505060008081548092919061040b90610d0e565b9190505550505050565b600160205280600052604060002060009150905080600001805461043890610cab565b80601f016020809104026020016040519081016040528092919081815260200182805461046490610cab565b80156104b15780601f10610486576101008083540402835291602001916104b1565b820191906000526020600020905b81548152906001019060200180831161049457829003601f168201915b5050505050908060010180546104c690610cab565b80601f01602080910402602001604051908101604052809291908181526020018280546104f290610cab565b801561053f5780601f106105145761010080835404028352916020019161053f565b820191906000526020600020905b81548152906001019060200180831161052257829003601f168201915b5050505050908060020160009054906101000a900473ffffffffffffffffffffffffffffffffffffffff169080600301805461057a90610cab565b80601f01602080910402602001604051908101604052809291908181526020018280546105a690610cab565b80156105f35780601f106105c8576101008083540402835291602001916105f3565b820191906000526020600020905b8154815290600101906020018083116105d657829003601f168201915b5050505050908060040154905085565b61069d83838360405160240161061b93929190610a64565b6040516020818303038152906040527fe3849f79000000000000000000000000000000000000000000000000000000007bffffffffffffffffffffffffffffffffffffffffffffffffffffffff19166020820180517bffffffffffffffffffffffffffffffffffffffffffffffffffffffff83818316178352505050506106a2565b505050565b60008151905060006a636f6e736f6c652e6c6f679050602083016000808483855afa5050505050565b8280546106d790610cab565b90600052602060002090601f0160209004810192826106f95760008555610740565b82601f1061071257805160ff1916838001178555610740565b82800160010185558215610740579182015b8281111561073f578251825591602001919060010190610724565b5b50905061074d9190610751565b5090565b5b8082111561076a576000816000905550600101610752565b5090565b600061078161077c84610b42565b610b1d565b90508281526020810184848401111561079957600080fd5b6107a4848285610c69565b509392505050565b600082601f8301126107bd57600080fd5b81356107cd84826020860161076e565b91505092915050565b6000813590506107e581610e70565b92915050565b60008060006060848603121561080057600080fd5b600084013567ffffffffffffffff81111561081a57600080fd5b610826868287016107ac565b935050602084013567ffffffffffffffff81111561084357600080fd5b61084f868287016107ac565b925050604084013567ffffffffffffffff81111561086c57600080fd5b610878868287016107ac565b9150509250925092565b60006020828403121561089457600080fd5b60006108a2848285016107d6565b91505092915050565b600080604083850312156108be57600080fd5b60006108cc858286016107d6565b92505060206108dd858286016107d6565b9150509250929050565b6108f081610c33565b82525050565b6108ff81610bf7565b82525050565b61090e81610be5565b82525050565b600061091f82610b73565b6109298185610b7e565b9350610939818560208601610c78565b61094281610de4565b840191505092915050565b600061095a601783610b7e565b915061096582610df5565b602082019050919050565b600061097d601d83610b7e565b915061098882610e1e565b602082019050919050565b60006109a0601483610b7e565b91506109ab82610e47565b602082019050919050565b6109bf81610c29565b82525050565b60006060820190506109da60008301866108e7565b6109e760208301856109b6565b6109f46040830184610905565b949350505050565b600060a0820190508181036000830152610a168188610914565b90508181036020830152610a2a8187610914565b9050610a3960408301866108f6565b8181036060830152610a4b8185610914565b9050610a5a60808301846109b6565b9695505050505050565b60006060820190508181036000830152610a7e8186610914565b9050610a8d60208301856109b6565b610a9a6040830184610905565b949350505050565b60006020820190508181036000830152610abb8161094d565b9050919050565b60006020820190508181036000830152610adb81610970565b9050919050565b60006020820190508181036000830152610afb81610993565b9050919050565b6000602082019050610b1760008301846109b6565b92915050565b6000610b27610b38565b9050610b338282610cdd565b919050565b6000604051905090565b600067ffffffffffffffff821115610b5d57610b5c610db5565b5b610b6682610de4565b9050602081019050919050565b600081519050919050565b600082825260208201905092915050565b6000610b9a82610c29565b9150610ba583610c29565b9250827fffffffffffffffffffffffffffffffffffffffffffffffffffffffffffffffff03821115610bda57610bd9610d57565b5b828201905092915050565b6000610bf082610c09565b9050919050565b6000610c0282610c09565b9050919050565b600073ffffffffffffffffffffffffffffffffffffffff82169050919050565b6000819050919050565b6000610c3e82610c45565b9050919050565b6000610c5082610c57565b9050919050565b6000610c6282610c09565b9050919050565b82818337600083830152505050565b60005b83811015610c96578082015181840152602081019050610c7b565b83811115610ca5576000848401525b50505050565b60006002820490506001821680610cc357607f821691505b60208210811415610cd757610cd6610d86565b5b50919050565b610ce682610de4565b810181811067ffffffffffffffff82111715610d0557610d04610db5565b5b80604052505050565b6000610d1982610c29565b91507fffffffffffffffffffffffffffffffffffffffffffffffffffffffffffffffff821415610d4c57610d4b610d57565b5b600182019050919050565b7f4e487b7100000000000000000000000000000000000000000000000000000000600052601160045260246000fd5b7f4e487b7100000000000000000000000000000000000000000000000000000000600052602260045260246000fd5b7f4e487b7100000000000000000000000000000000000000000000000000000000600052604160045260246000fd5b6000601f19601f8301169050919050565b7f50686f746f2068617368206973206e6f742076616c6964000000000000000000600082015250565b7f596f752063616e6e6f7420646f6e61746520746f20796f757273656c66000000600082015250565b7f496e73756666696369656e742042616c616e6365000000000000000000000000600082015250565b610e7981610c29565b8114610e8457600080fd5b5056fea2646970667358221220b8add0bca87267c876c1385348b590e80640fd9344d0772f9bef8c75856b04de64736f6c63430008040033",
  "linkReferences": {},
  "deployedLinkReferences": {}
}